{
  "_format": "hh-sol-artifact-1",
  "contractName": "MockPensionFi",
  "sourceName": "contracts/mocks/MockTrueYield.sol",
  "abi": [
    {
      "inputs": [],
      "stateMutability": "payable",
      "type": "constructor"
    },
    {
      "inputs": [
        {
          "internalType": "uint256",
          "name": "basisPoints",
          "type": "uint256"
        },
        {
          "internalType": "uint256",
          "name": "numDays",
          "type": "uint256"
        },
        {
          "internalType": "uint256",
          "name": "weiAmount",
          "type": "uint256"
        }
      ],
      "name": "calculateInterest",
      "outputs": [
        {
          "internalType": "uint256",
          "name": "",
          "type": "uint256"
        }
      ],
      "stateMutability": "pure",
      "type": "function"
    },
    {
      "inputs": [
        {
          "internalType": "uint256",
          "name": "numDays",
          "type": "uint256"
        },
        {
          "internalType": "uint256",
          "name": "basisPoints",
          "type": "uint256"
        }
      ],
      "name": "changeLockPeriods",
      "outputs": [],
      "stateMutability": "nonpayable",
      "type": "function"
    },
    {
      "inputs": [
        {
          "internalType": "uint256",
          "name": "positionId",
          "type": "uint256"
        },
        {
          "internalType": "uint256",
          "name": "newUnlockDate",
          "type": "uint256"
        }
      ],
      "name": "changeUnlockDate",
      "outputs": [],
      "stateMutability": "nonpayable",
      "type": "function"
    },
    {
      "inputs": [
        {
          "internalType": "uint256",
          "name": "positionId",
          "type": "uint256"
        }
      ],
      "name": "closePosition",
      "outputs": [],
      "stateMutability": "nonpayable",
      "type": "function"
    },
    {
      "inputs": [],
      "name": "currentPositionId",
      "outputs": [
        {
          "internalType": "uint256",
          "name": "",
          "type": "uint256"
        }
      ],
      "stateMutability": "view",
      "type": "function"
    },
    {
      "inputs": [
        {
          "internalType": "address",
          "name": "walletAddress",
          "type": "address"
        }
      ],
      "name": "getAllPositionIdsByAddress",
      "outputs": [
        {
          "internalType": "uint256[]",
          "name": "",
          "type": "uint256[]"
        }
      ],
      "stateMutability": "view",
      "type": "function"
    },
    {
      "inputs": [
        {
          "internalType": "uint256",
          "name": "numDays",
          "type": "uint256"
        }
      ],
      "name": "getInterestRates",
      "outputs": [
        {
          "internalType": "uint256",
          "name": "",
          "type": "uint256"
        }
      ],
      "stateMutability": "view",
      "type": "function"
    },
    {
      "inputs": [],
      "name": "getLockPeriods",
      "outputs": [
        {
          "internalType": "uint256[]",
          "name": "",
          "type": "uint256[]"
        }
      ],
      "stateMutability": "view",
      "type": "function"
    },
    {
      "inputs": [
        {
          "internalType": "uint256",
          "name": "positionId",
          "type": "uint256"
        }
      ],
      "name": "getPositionById",
      "outputs": [
        {
          "components": [
            {
              "internalType": "uint256",
              "name": "positionId",
              "type": "uint256"
            },
            {
              "internalType": "address",
              "name": "walletAddress",
              "type": "address"
            },
            {
              "internalType": "uint256",
              "name": "createdDate",
              "type": "uint256"
            },
            {
              "internalType": "uint256",
              "name": "unlockDate",
              "type": "uint256"
            },
            {
              "internalType": "uint256",
              "name": "percentInterest",
              "type": "uint256"
            },
            {
              "internalType": "uint256",
              "name": "weiStaked",
              "type": "uint256"
            },
            {
              "internalType": "uint256",
              "name": "weiInterest",
              "type": "uint256"
            },
            {
              "internalType": "bool",
              "name": "open",
              "type": "bool"
            }
          ],
          "internalType": "struct MockPensionFi.Position",
          "name": "",
          "type": "tuple"
        }
      ],
      "stateMutability": "view",
      "type": "function"
    },
    {
      "inputs": [
        {
          "internalType": "uint256",
          "name": "positionId",
          "type": "uint256"
        }
      ],
      "name": "getWeiFromPosition",
      "outputs": [
        {
          "internalType": "uint256",
          "name": "",
          "type": "uint256"
        }
      ],
      "stateMutability": "view",
      "type": "function"
    },
    {
      "inputs": [
        {
          "internalType": "uint256",
          "name": "",
          "type": "uint256"
        }
      ],
      "name": "lockPeriods",
      "outputs": [
        {
          "internalType": "uint256",
          "name": "",
          "type": "uint256"
        }
      ],
      "stateMutability": "view",
      "type": "function"
    },
    {
      "inputs": [],
      "name": "owner",
      "outputs": [
        {
          "internalType": "address",
          "name": "",
          "type": "address"
        }
      ],
      "stateMutability": "view",
      "type": "function"
    },
    {
      "inputs": [
        {
          "internalType": "address",
          "name": "",
          "type": "address"
        },
        {
          "internalType": "uint256",
          "name": "",
          "type": "uint256"
        }
      ],
      "name": "positionIdsByAddress",
      "outputs": [
        {
          "internalType": "uint256",
          "name": "",
          "type": "uint256"
        }
      ],
      "stateMutability": "view",
      "type": "function"
    },
    {
      "inputs": [
        {
          "internalType": "uint256",
          "name": "",
          "type": "uint256"
        }
      ],
      "name": "positions",
      "outputs": [
        {
          "internalType": "uint256",
          "name": "positionId",
          "type": "uint256"
        },
        {
          "internalType": "address",
          "name": "walletAddress",
          "type": "address"
        },
        {
          "internalType": "uint256",
          "name": "createdDate",
          "type": "uint256"
        },
        {
          "internalType": "uint256",
          "name": "unlockDate",
          "type": "uint256"
        },
        {
          "internalType": "uint256",
          "name": "percentInterest",
          "type": "uint256"
        },
        {
          "internalType": "uint256",
          "name": "weiStaked",
          "type": "uint256"
        },
        {
          "internalType": "uint256",
          "name": "weiInterest",
          "type": "uint256"
        },
        {
          "internalType": "bool",
          "name": "open",
          "type": "bool"
        }
      ],
      "stateMutability": "view",
      "type": "function"
    },
    {
      "inputs": [
        {
          "internalType": "uint256",
          "name": "numDays",
          "type": "uint256"
        }
      ],
      "name": "stakeEther",
      "outputs": [],
      "stateMutability": "payable",
      "type": "function"
    },
    {
      "inputs": [
        {
          "internalType": "uint256",
          "name": "",
          "type": "uint256"
        }
      ],
      "name": "tiers",
      "outputs": [
        {
          "internalType": "uint256",
          "name": "",
          "type": "uint256"
        }
      ],
      "stateMutability": "view",
      "type": "function"
    },
    {
      "stateMutability": "payable",
      "type": "receive"
    }
  ],
  "bytecode": "0x6080604052336000806101000a81548173ffffffffffffffffffffffffffffffffffffffff021916908373ffffffffffffffffffffffffffffffffffffffff16021790555060006009819055506102bc600c6000601e8152602001908152602001600020819055506103e8600c6000605a8152602001908152602001600020819055506104b0600c600061016d815260200190815260200160002081905550600d601e9080600181540180825580915050600190039060005260206000200160009091909190915055600d605a9080600181540180825580915050600190039060005260206000200160009091909190915055600d61016d908060018154018082558091505060019003906000526020600020016000909190919091505561179b8061012c6000396000f3fe6080604052600436106100f75760003560e01c80638da5cb5b1161008a578063ab4185df11610059578063ab4185df14610388578063b838ec86146103c5578063c7c9d05514610402578063e4f908411461042b576100fe565b80638da5cb5b146102b357806395ad86e0146102de57806399fbab881461031b578063a126d6011461035f576100fe565b806341ee13be116100c657806341ee13be146101e557806345eae373146102105780634c8f2a781461024d57806364db2c5b1461028a576100fe565b8063039af9eb1461010357806305e1bd8c146101405780631131c8cd1461017d57806320f9f894146101a8576100fe565b366100fe57005b600080fd5b34801561010f57600080fd5b5061012a60048036038101906101259190610edb565b610447565b6040516101379190610f17565b60405180910390f35b34801561014c57600080fd5b5061016760048036038101906101629190610f32565b61045f565b6040516101749190610f17565b60405180910390f35b34801561018957600080fd5b50610192610483565b60405161019f9190610f17565b60405180910390f35b3480156101b457600080fd5b506101cf60048036038101906101ca9190610fe3565b610489565b6040516101dc91906110ce565b60405180910390f35b3480156101f157600080fd5b506101fa610520565b60405161020791906110ce565b60405180910390f35b34801561021c57600080fd5b50610237600480360381019061023291906110f0565b610578565b6040516102449190610f17565b60405180910390f35b34801561025957600080fd5b50610274600480360381019061026f9190610edb565b6105a9565b6040516102819190610f17565b60405180910390f35b34801561029657600080fd5b506102b160048036038101906102ac9190611130565b6105cd565b005b3480156102bf57600080fd5b506102c86106a0565b6040516102d5919061117f565b60405180910390f35b3480156102ea57600080fd5b5061030560048036038101906103009190610edb565b6106c4565b6040516103129190610f17565b60405180910390f35b34801561032757600080fd5b50610342600480360381019061033d9190610edb565b6106e1565b6040516103569897969594939291906111b5565b60405180910390f35b34801561036b57600080fd5b5061038660048036038101906103819190610edb565b610756565b005b34801561039457600080fd5b506103af60048036038101906103aa9190610edb565b610a67565b6040516103bc9190610f17565b60405180910390f35b3480156103d157600080fd5b506103ec60048036038101906103e79190610edb565b610a87565b6040516103f991906112f3565b60405180910390f35b34801561040e57600080fd5b5061042960048036038101906104249190611130565b610b62565b005b61044560048036038101906104409190610edb565b610c0f565b005b600c6020528060005260406000206000915090505481565b60006127108285610470919061133e565b61047a91906113af565b90509392505050565b60095481565b6060600b60008373ffffffffffffffffffffffffffffffffffffffff1673ffffffffffffffffffffffffffffffffffffffff16815260200190815260200160002080548060200260200160405190810160405280929190818152602001828054801561051457602002820191906000526020600020905b815481526020019060010190808311610500575b50505050509050919050565b6060600d80548060200260200160405190810160405280929190818152602001828054801561056e57602002820191906000526020600020905b81548152602001906001019080831161055a575b5050505050905090565b600b602052816000526040600020818154811061059457600080fd5b90600052602060002001600091509150505481565b600d81815481106105b957600080fd5b906000526020600020016000915090505481565b3373ffffffffffffffffffffffffffffffffffffffff1660008054906101000a900473ffffffffffffffffffffffffffffffffffffffff1673ffffffffffffffffffffffffffffffffffffffff161461065b576040517f08c379a000000000000000000000000000000000000000000000000000000000815260040161065290611463565b60405180910390fd5b80600c600084815260200190815260200160002081905550600d8290806001815401808255809150506001900390600052602060002001600090919091909150555050565b60008054906101000a900473ffffffffffffffffffffffffffffffffffffffff1681565b6000600c6000838152602001908152602001600020549050919050565b600a6020528060005260406000206000915090508060000154908060010160009054906101000a900473ffffffffffffffffffffffffffffffffffffffff16908060020154908060030154908060040154908060050154908060060154908060070160009054906101000a900460ff16905088565b3373ffffffffffffffffffffffffffffffffffffffff16600a600083815260200190815260200160002060010160009054906101000a900473ffffffffffffffffffffffffffffffffffffffff1673ffffffffffffffffffffffffffffffffffffffff16146107fa576040517f08c379a00000000000000000000000000000000000000000000000000000000081526004016107f1906114f5565b60405180910390fd5b60011515600a600083815260200190815260200160002060070160009054906101000a900460ff16151514610864576040517f08c379a000000000000000000000000000000000000000000000000000000000815260040161085b90611561565b60405180910390fd5b6000600a600083815260200190815260200160002060070160006101000a81548160ff021916908315150217905550600a6000828152602001908152602001600020600301544211156109a0576000600a600083815260200190815260200160002060060154600a6000848152602001908152602001600020600501546108eb9190611581565b905060003373ffffffffffffffffffffffffffffffffffffffff1682604051610913906115e6565b60006040518083038185875af1925050503d8060008114610950576040519150601f19603f3d011682016040523d82523d6000602084013e610955565b606091505b5050905080610999576040517f08c379a000000000000000000000000000000000000000000000000000000000815260040161099090611647565b60405180910390fd5b5050610a64565b60003373ffffffffffffffffffffffffffffffffffffffff16600a6000848152602001908152602001600020600501546040516109dc906115e6565b60006040518083038185875af1925050503d8060008114610a19576040519150601f19603f3d011682016040523d82523d6000602084013e610a1e565b606091505b5050905080610a62576040517f08c379a0000000000000000000000000000000000000000000000000000000008152600401610a5990611647565b60405180910390fd5b505b50565b6000600a6000838152602001908152602001600020600501549050919050565b610a8f610e43565b600a600083815260200190815260200160002060405180610100016040529081600082015481526020016001820160009054906101000a900473ffffffffffffffffffffffffffffffffffffffff1673ffffffffffffffffffffffffffffffffffffffff1673ffffffffffffffffffffffffffffffffffffffff16815260200160028201548152602001600382015481526020016004820154815260200160058201548152602001600682015481526020016007820160009054906101000a900460ff1615151515815250509050919050565b3373ffffffffffffffffffffffffffffffffffffffff1660008054906101000a900473ffffffffffffffffffffffffffffffffffffffff1673ffffffffffffffffffffffffffffffffffffffff1614610bf0576040517f08c379a0000000000000000000000000000000000000000000000000000000008152600401610be7906116d9565b60405180910390fd5b80600a6000848152602001908152602001600020600301819055505050565b6000600c60008381526020019081526020016000205411610c65576040517f08c379a0000000000000000000000000000000000000000000000000000000008152600401610c5c90611745565b60405180910390fd5b60405180610100016040528060095481526020013373ffffffffffffffffffffffffffffffffffffffff1681526020014281526020016201518083610caa919061133e565b42610cb59190611581565b8152602001600c6000848152602001908152602001600020548152602001348152602001610cf7600c600085815260200190815260200160002054843461045f565b815260200160011515815250600a600060095481526020019081526020016000206000820151816000015560208201518160010160006101000a81548173ffffffffffffffffffffffffffffffffffffffff021916908373ffffffffffffffffffffffffffffffffffffffff16021790555060408201518160020155606082015181600301556080820151816004015560a0820151816005015560c0820151816006015560e08201518160070160006101000a81548160ff021916908315150217905550905050600b60003373ffffffffffffffffffffffffffffffffffffffff1673ffffffffffffffffffffffffffffffffffffffff1681526020019081526020016000206009549080600181540180825580915050600190039060005260206000200160009091909190915055600160096000828254610e399190611581565b9250508190555050565b60405180610100016040528060008152602001600073ffffffffffffffffffffffffffffffffffffffff16815260200160008152602001600081526020016000815260200160008152602001600081526020016000151581525090565b600080fd5b6000819050919050565b610eb881610ea5565b8114610ec357600080fd5b50565b600081359050610ed581610eaf565b92915050565b600060208284031215610ef157610ef0610ea0565b5b6000610eff84828501610ec6565b91505092915050565b610f1181610ea5565b82525050565b6000602082019050610f2c6000830184610f08565b92915050565b600080600060608486031215610f4b57610f4a610ea0565b5b6000610f5986828701610ec6565b9350506020610f6a86828701610ec6565b9250506040610f7b86828701610ec6565b9150509250925092565b600073ffffffffffffffffffffffffffffffffffffffff82169050919050565b6000610fb082610f85565b9050919050565b610fc081610fa5565b8114610fcb57600080fd5b50565b600081359050610fdd81610fb7565b92915050565b600060208284031215610ff957610ff8610ea0565b5b600061100784828501610fce565b91505092915050565b600081519050919050565b600082825260208201905092915050565b6000819050602082019050919050565b61104581610ea5565b82525050565b6000611057838361103c565b60208301905092915050565b6000602082019050919050565b600061107b82611010565b611085818561101b565b93506110908361102c565b8060005b838110156110c15781516110a8888261104b565b97506110b383611063565b925050600181019050611094565b5085935050505092915050565b600060208201905081810360008301526110e88184611070565b905092915050565b6000806040838503121561110757611106610ea0565b5b600061111585828601610fce565b925050602061112685828601610ec6565b9150509250929050565b6000806040838503121561114757611146610ea0565b5b600061115585828601610ec6565b925050602061116685828601610ec6565b9150509250929050565b61117981610fa5565b82525050565b60006020820190506111946000830184611170565b92915050565b60008115159050919050565b6111af8161119a565b82525050565b6000610100820190506111cb600083018b610f08565b6111d8602083018a611170565b6111e56040830189610f08565b6111f26060830188610f08565b6111ff6080830187610f08565b61120c60a0830186610f08565b61121960c0830185610f08565b61122660e08301846111a6565b9998505050505050505050565b61123c81610fa5565b82525050565b61124b8161119a565b82525050565b61010082016000820151611268600085018261103c565b50602082015161127b6020850182611233565b50604082015161128e604085018261103c565b5060608201516112a1606085018261103c565b5060808201516112b4608085018261103c565b5060a08201516112c760a085018261103c565b5060c08201516112da60c085018261103c565b5060e08201516112ed60e0850182611242565b50505050565b6000610100820190506113096000830184611251565b92915050565b7f4e487b7100000000000000000000000000000000000000000000000000000000600052601160045260246000fd5b600061134982610ea5565b915061135483610ea5565b925082820261136281610ea5565b915082820484148315176113795761137861130f565b5b5092915050565b7f4e487b7100000000000000000000000000000000000000000000000000000000600052601260045260246000fd5b60006113ba82610ea5565b91506113c583610ea5565b9250826113d5576113d4611380565b5b828204905092915050565b600082825260208201905092915050565b7f4f6e6c79206f776e65722063616e206d6f6469667920746865207374616b696e60008201527f6720706572696f64730000000000000000000000000000000000000000000000602082015250565b600061144d6029836113e0565b9150611458826113f1565b604082019050919050565b6000602082019050818103600083015261147c81611440565b9050919050565b7f4f6e6c79207468652063726561746f722063616e206d6f64696679207468652060008201527f706f736974696f6e000000000000000000000000000000000000000000000000602082015250565b60006114df6028836113e0565b91506114ea82611483565b604082019050919050565b6000602082019050818103600083015261150e816114d2565b9050919050565b7f506f736974696f6e20697320636c6f7365640000000000000000000000000000600082015250565b600061154b6012836113e0565b915061155682611515565b602082019050919050565b6000602082019050818103600083015261157a8161153e565b9050919050565b600061158c82610ea5565b915061159783610ea5565b92508282019050808211156115af576115ae61130f565b5b92915050565b600081905092915050565b50565b60006115d06000836115b5565b91506115db826115c0565b600082019050919050565b60006115f1826115c3565b9150819050919050565b7f5472616e73616374696f6e206661696c65640000000000000000000000000000600082015250565b60006116316012836113e0565b915061163c826115fb565b602082019050919050565b6000602082019050818103600083015261166081611624565b9050919050565b7f4f6e6c79206f776e65722063616e206368616e676520556e6c6f636b2064617460008201527f6500000000000000000000000000000000000000000000000000000000000000602082015250565b60006116c36021836113e0565b91506116ce82611667565b604082019050919050565b600060208201905081810360008301526116f2816116b6565b9050919050565b7f4d617070696e67206e6f7420666f756e64000000000000000000000000000000600082015250565b600061172f6011836113e0565b915061173a826116f9565b602082019050919050565b6000602082019050818103600083015261175e81611722565b905091905056fea26469706673582212209826572cb28c1f4e40965ed1cf50e7ed8120a2204ceced87dc5881da28bfe5a864736f6c63430008110033",
  "linkReferences": {},
  "deployedLinkReferences": {}
}