{
  "_format": "hh-sol-artifact-1",
  "contractName": "PensionFi",
  "sourceName": "contracts/PensionFi.sol",
  "abi": [
    {
      "inputs": [],
      "stateMutability": "payable",
      "type": "constructor"
    },
    {
      "inputs": [],
      "name": "aWethAddress",
      "outputs": [
        {
          "internalType": "address",
          "name": "",
          "type": "address"
        }
      ],
      "stateMutability": "view",
      "type": "function"
    },
    {
      "inputs": [
        {
          "internalType": "uint256",
          "name": "basisPoints",
          "type": "uint256"
        },
        {
          "internalType": "uint256",
          "name": "numDays",
          "type": "uint256"
        },
        {
          "internalType": "uint256",
          "name": "weiAmount",
          "type": "uint256"
        }
      ],
      "name": "calculateInterest",
      "outputs": [
        {
          "internalType": "uint256",
          "name": "",
          "type": "uint256"
        }
      ],
      "stateMutability": "pure",
      "type": "function"
    },
    {
      "inputs": [
        {
          "internalType": "uint256",
          "name": "numDays",
          "type": "uint256"
        },
        {
          "internalType": "uint256",
          "name": "basisPoints",
          "type": "uint256"
        }
      ],
      "name": "changeLockPeriods",
      "outputs": [],
      "stateMutability": "nonpayable",
      "type": "function"
    },
    {
      "inputs": [
        {
          "internalType": "uint256",
          "name": "positionId",
          "type": "uint256"
        },
        {
          "internalType": "uint256",
          "name": "newUnlockDate",
          "type": "uint256"
        }
      ],
      "name": "changeUnlockDate",
      "outputs": [],
      "stateMutability": "nonpayable",
      "type": "function"
    },
    {
      "inputs": [
        {
          "internalType": "uint256",
          "name": "positionId",
          "type": "uint256"
        }
      ],
      "name": "closePosition",
      "outputs": [],
      "stateMutability": "nonpayable",
      "type": "function"
    },
    {
      "inputs": [],
      "name": "currentPositionId",
      "outputs": [
        {
          "internalType": "uint256",
          "name": "",
          "type": "uint256"
        }
      ],
      "stateMutability": "view",
      "type": "function"
    },
    {
      "inputs": [
        {
          "internalType": "address",
          "name": "walletAddress",
          "type": "address"
        }
      ],
      "name": "getAllPositionIdsByAddress",
      "outputs": [
        {
          "internalType": "uint256[]",
          "name": "",
          "type": "uint256[]"
        }
      ],
      "stateMutability": "view",
      "type": "function"
    },
    {
      "inputs": [],
      "name": "getContractAWETHBalance",
      "outputs": [
        {
          "internalType": "uint256",
          "name": "",
          "type": "uint256"
        }
      ],
      "stateMutability": "view",
      "type": "function"
    },
    {
      "inputs": [
        {
          "internalType": "uint256",
          "name": "numDays",
          "type": "uint256"
        }
      ],
      "name": "getInterestRates",
      "outputs": [
        {
          "internalType": "uint256",
          "name": "",
          "type": "uint256"
        }
      ],
      "stateMutability": "view",
      "type": "function"
    },
    {
      "inputs": [],
      "name": "getLockPeriods",
      "outputs": [
        {
          "internalType": "uint256[]",
          "name": "",
          "type": "uint256[]"
        }
      ],
      "stateMutability": "view",
      "type": "function"
    },
    {
      "inputs": [
        {
          "internalType": "uint256",
          "name": "positionId",
          "type": "uint256"
        }
      ],
      "name": "getPositionById",
      "outputs": [
        {
          "components": [
            {
              "internalType": "uint256",
              "name": "positionId",
              "type": "uint256"
            },
            {
              "internalType": "address",
              "name": "walletAddress",
              "type": "address"
            },
            {
              "internalType": "uint256",
              "name": "createdDate",
              "type": "uint256"
            },
            {
              "internalType": "uint256",
              "name": "unlockDate",
              "type": "uint256"
            },
            {
              "internalType": "uint256",
              "name": "percentInterest",
              "type": "uint256"
            },
            {
              "internalType": "uint256",
              "name": "weiStaked",
              "type": "uint256"
            },
            {
              "internalType": "uint256",
              "name": "weiInterest",
              "type": "uint256"
            },
            {
              "internalType": "bool",
              "name": "open",
              "type": "bool"
            }
          ],
          "internalType": "struct PensionFi.Position",
          "name": "",
          "type": "tuple"
        }
      ],
      "stateMutability": "view",
      "type": "function"
    },
    {
      "inputs": [
        {
          "internalType": "uint256",
          "name": "positionId",
          "type": "uint256"
        }
      ],
      "name": "getWeiFromPosition",
      "outputs": [
        {
          "internalType": "uint256",
          "name": "",
          "type": "uint256"
        }
      ],
      "stateMutability": "view",
      "type": "function"
    },
    {
      "inputs": [],
      "name": "iLendingPool",
      "outputs": [
        {
          "internalType": "contract ILendingPool",
          "name": "",
          "type": "address"
        }
      ],
      "stateMutability": "view",
      "type": "function"
    },
    {
      "inputs": [],
      "name": "iWethGateway",
      "outputs": [
        {
          "internalType": "contract IWETHGateway",
          "name": "",
          "type": "address"
        }
      ],
      "stateMutability": "view",
      "type": "function"
    },
    {
      "inputs": [],
      "name": "lendingPoolAddress",
      "outputs": [
        {
          "internalType": "address",
          "name": "",
          "type": "address"
        }
      ],
      "stateMutability": "view",
      "type": "function"
    },
    {
      "inputs": [
        {
          "internalType": "uint256",
          "name": "",
          "type": "uint256"
        }
      ],
      "name": "lockPeriods",
      "outputs": [
        {
          "internalType": "uint256",
          "name": "",
          "type": "uint256"
        }
      ],
      "stateMutability": "view",
      "type": "function"
    },
    {
      "inputs": [],
      "name": "owner",
      "outputs": [
        {
          "internalType": "address",
          "name": "",
          "type": "address"
        }
      ],
      "stateMutability": "view",
      "type": "function"
    },
    {
      "inputs": [
        {
          "internalType": "address",
          "name": "",
          "type": "address"
        },
        {
          "internalType": "uint256",
          "name": "",
          "type": "uint256"
        }
      ],
      "name": "positionIdsByAddress",
      "outputs": [
        {
          "internalType": "uint256",
          "name": "",
          "type": "uint256"
        }
      ],
      "stateMutability": "view",
      "type": "function"
    },
    {
      "inputs": [
        {
          "internalType": "uint256",
          "name": "",
          "type": "uint256"
        }
      ],
      "name": "positions",
      "outputs": [
        {
          "internalType": "uint256",
          "name": "positionId",
          "type": "uint256"
        },
        {
          "internalType": "address",
          "name": "walletAddress",
          "type": "address"
        },
        {
          "internalType": "uint256",
          "name": "createdDate",
          "type": "uint256"
        },
        {
          "internalType": "uint256",
          "name": "unlockDate",
          "type": "uint256"
        },
        {
          "internalType": "uint256",
          "name": "percentInterest",
          "type": "uint256"
        },
        {
          "internalType": "uint256",
          "name": "weiStaked",
          "type": "uint256"
        },
        {
          "internalType": "uint256",
          "name": "weiInterest",
          "type": "uint256"
        },
        {
          "internalType": "bool",
          "name": "open",
          "type": "bool"
        }
      ],
      "stateMutability": "view",
      "type": "function"
    },
    {
      "inputs": [
        {
          "internalType": "uint256",
          "name": "numDays",
          "type": "uint256"
        }
      ],
      "name": "stakeEther",
      "outputs": [],
      "stateMutability": "payable",
      "type": "function"
    },
    {
      "inputs": [
        {
          "internalType": "uint256",
          "name": "",
          "type": "uint256"
        }
      ],
      "name": "tiers",
      "outputs": [
        {
          "internalType": "uint256",
          "name": "",
          "type": "uint256"
        }
      ],
      "stateMutability": "view",
      "type": "function"
    },
    {
      "stateMutability": "payable",
      "type": "receive"
    }
  ],
  "bytecode": "0x608060405273ee9ee614ad26963bec1bec0d2c92879ae1f209fa6000806101000a81548173ffffffffffffffffffffffffffffffffffffffff021916908373ffffffffffffffffffffffffffffffffffffffff160217905550739198f13b08e299d85e096929fa9781a1e3d5d827600160006101000a81548173ffffffffffffffffffffffffffffffffffffffff021916908373ffffffffffffffffffffffffffffffffffffffff16021790555033600260006101000a81548173ffffffffffffffffffffffffffffffffffffffff021916908373ffffffffffffffffffffffffffffffffffffffff1602179055506000600b819055506102bc600e6000601e8152602001908152602001600020819055506103e8600e6000605a8152602001908152602001600020819055506104b0600e600061016d815260200190815260200160002081905550600f601e9080600181540180825580915050600190039060005260206000200160009091909190915055600f605a9080600181540180825580915050600190039060005260206000200160009091909190915055600f61016d9080600181540180825580915050600190039060005260206000200160009091909190915055611e20806101d66000396000f3fe60806040526004361061012e5760003560e01c80638da5cb5b116100ab578063ab4185df1161006f578063ab4185df14610440578063b5574b381461047d578063b838ec86146104a8578063c7c9d055146104e5578063d3ae26b31461050e578063e4f908411461053957610135565b80638da5cb5b1461034057806395ad86e01461036b5780639778c97c146103a857806399fbab88146103d3578063a126d6011461041757610135565b806341ee13be116100f257806341ee13be1461024757806345eae373146102725780634c8f2a78146102af57806357c45b4b146102ec57806364db2c5b1461031757610135565b8063039af9eb1461013a57806305e1bd8c146101775780631131c8cd146101b4578063156a75d3146101df57806320f9f8941461020a57610135565b3661013557005b600080fd5b34801561014657600080fd5b50610161600480360381019061015c919061132f565b610555565b60405161016e919061136b565b60405180910390f35b34801561018357600080fd5b5061019e60048036038101906101999190611386565b61056d565b6040516101ab919061136b565b60405180910390f35b3480156101c057600080fd5b506101c9610591565b6040516101d6919061136b565b60405180910390f35b3480156101eb57600080fd5b506101f4610597565b6040516102019190611458565b60405180910390f35b34801561021657600080fd5b50610231600480360381019061022c91906114b1565b6105bd565b60405161023e919061159c565b60405180910390f35b34801561025357600080fd5b5061025c610654565b604051610269919061159c565b60405180910390f35b34801561027e57600080fd5b50610299600480360381019061029491906115be565b6106ac565b6040516102a6919061136b565b60405180910390f35b3480156102bb57600080fd5b506102d660048036038101906102d1919061132f565b6106dd565b6040516102e3919061136b565b60405180910390f35b3480156102f857600080fd5b50610301610701565b60405161030e919061160d565b60405180910390f35b34801561032357600080fd5b5061033e60048036038101906103399190611628565b610719565b005b34801561034c57600080fd5b506103556107ee565b604051610362919061160d565b60405180910390f35b34801561037757600080fd5b50610392600480360381019061038d919061132f565b610814565b60405161039f919061136b565b60405180910390f35b3480156103b457600080fd5b506103bd610831565b6040516103ca919061136b565b60405180910390f35b3480156103df57600080fd5b506103fa60048036038101906103f5919061132f565b6108c6565b60405161040e989796959493929190611683565b60405180910390f35b34801561042357600080fd5b5061043e6004803603810190610439919061132f565b61093b565b005b34801561044c57600080fd5b506104676004803603810190610462919061132f565b610dd8565b604051610474919061136b565b60405180910390f35b34801561048957600080fd5b50610492610df8565b60405161049f9190611722565b60405180910390f35b3480156104b457600080fd5b506104cf60048036038101906104ca919061132f565b610e1c565b6040516104dc91906117fd565b60405180910390f35b3480156104f157600080fd5b5061050c60048036038101906105079190611628565b610ef7565b005b34801561051a57600080fd5b50610523610fa6565b604051610530919061160d565b60405180910390f35b610553600480360381019061054e919061132f565b610fbe565b005b600e6020528060005260406000206000915090505481565b6000612710828561057e9190611848565b61058891906118b9565b90509392505050565b600b5481565b600160009054906101000a900473ffffffffffffffffffffffffffffffffffffffff1681565b6060600d60008373ffffffffffffffffffffffffffffffffffffffff1673ffffffffffffffffffffffffffffffffffffffff16815260200190815260200160002080548060200260200160405190810160405280929190818152602001828054801561064857602002820191906000526020600020905b815481526020019060010190808311610634575b50505050509050919050565b6060600f8054806020026020016040519081016040528092919081815260200182805480156106a257602002820191906000526020600020905b81548152602001906001019080831161068e575b5050505050905090565b600d60205281600052604060002081815481106106c857600080fd5b90600052602060002001600091509150505481565b600f81815481106106ed57600080fd5b906000526020600020016000915090505481565b737ae20397ca327721f013bb9e140c707f82871b5681565b3373ffffffffffffffffffffffffffffffffffffffff16600260009054906101000a900473ffffffffffffffffffffffffffffffffffffffff1673ffffffffffffffffffffffffffffffffffffffff16146107a9576040517f08c379a00000000000000000000000000000000000000000000000000000000081526004016107a09061196d565b60405180910390fd5b80600e600084815260200190815260200160002081905550600f8290806001815401808255809150506001900390600052602060002001600090919091909150555050565b600260009054906101000a900473ffffffffffffffffffffffffffffffffffffffff1681565b6000600e6000838152602001908152602001600020549050919050565b6000737ae20397ca327721f013bb9e140c707f82871b5673ffffffffffffffffffffffffffffffffffffffff166370a08231306040518263ffffffff1660e01b8152600401610880919061160d565b602060405180830381865afa15801561089d573d6000803e3d6000fd5b505050506040513d601f19601f820116820180604052508101906108c191906119a2565b905090565b600c6020528060005260406000206000915090508060000154908060010160009054906101000a900473ffffffffffffffffffffffffffffffffffffffff16908060020154908060030154908060040154908060050154908060060154908060070160009054906101000a900460ff16905088565b3373ffffffffffffffffffffffffffffffffffffffff16600c600083815260200190815260200160002060010160009054906101000a900473ffffffffffffffffffffffffffffffffffffffff1673ffffffffffffffffffffffffffffffffffffffff16146109df576040517f08c379a00000000000000000000000000000000000000000000000000000000081526004016109d690611a41565b60405180910390fd5b60011515600c600083815260200190815260200160002060070160009054906101000a900460ff16151514610a49576040517f08c379a0000000000000000000000000000000000000000000000000000000008152600401610a4090611aad565b60405180910390fd5b6000600c600083815260200190815260200160002060070160006101000a81548160ff021916908315150217905550737ae20397ca327721f013bb9e140c707f82871b5673ffffffffffffffffffffffffffffffffffffffff1663095ea7b360008054906101000a900473ffffffffffffffffffffffffffffffffffffffff167fffffffffffffffffffffffffffffffffffffffffffffffffffffffffffffffff6040518363ffffffff1660e01b8152600401610b07929190611acd565b6020604051808303816000875af1158015610b26573d6000803e3d6000fd5b505050506040513d601f19601f82011682018060405250810190610b4a9190611b22565b5060008054906101000a900473ffffffffffffffffffffffffffffffffffffffff1673ffffffffffffffffffffffffffffffffffffffff166380500d20739198f13b08e299d85e096929fa9781a1e3d5d827600c600085815260200190815260200160002060050154306040518463ffffffff1660e01b8152600401610bd293929190611b4f565b600060405180830381600087803b158015610bec57600080fd5b505af1158015610c00573d6000803e3d6000fd5b50505050600c600082815260200190815260200160002060030154421115610d11576000600c600083815260200190815260200160002060060154600c600084815260200190815260200160002060050154610c5c9190611b86565b905060003373ffffffffffffffffffffffffffffffffffffffff1682604051610c8490611beb565b60006040518083038185875af1925050503d8060008114610cc1576040519150601f19603f3d011682016040523d82523d6000602084013e610cc6565b606091505b5050905080610d0a576040517f08c379a0000000000000000000000000000000000000000000000000000000008152600401610d0190611c4c565b60405180910390fd5b5050610dd5565b60003373ffffffffffffffffffffffffffffffffffffffff16600c600084815260200190815260200160002060050154604051610d4d90611beb565b60006040518083038185875af1925050503d8060008114610d8a576040519150601f19603f3d011682016040523d82523d6000602084013e610d8f565b606091505b5050905080610dd3576040517f08c379a0000000000000000000000000000000000000000000000000000000008152600401610dca90611c4c565b60405180910390fd5b505b50565b6000600c6000838152602001908152602001600020600501549050919050565b60008054906101000a900473ffffffffffffffffffffffffffffffffffffffff1681565b610e24611297565b600c600083815260200190815260200160002060405180610100016040529081600082015481526020016001820160009054906101000a900473ffffffffffffffffffffffffffffffffffffffff1673ffffffffffffffffffffffffffffffffffffffff1673ffffffffffffffffffffffffffffffffffffffff16815260200160028201548152602001600382015481526020016004820154815260200160058201548152602001600682015481526020016007820160009054906101000a900460ff1615151515815250509050919050565b3373ffffffffffffffffffffffffffffffffffffffff16600260009054906101000a900473ffffffffffffffffffffffffffffffffffffffff1673ffffffffffffffffffffffffffffffffffffffff1614610f87576040517f08c379a0000000000000000000000000000000000000000000000000000000008152600401610f7e90611cde565b60405180910390fd5b80600c6000848152602001908152602001600020600301819055505050565b739198f13b08e299d85e096929fa9781a1e3d5d82781565b6000600e60008381526020019081526020016000205411611014576040517f08c379a000000000000000000000000000000000000000000000000000000000815260040161100b90611d4a565b60405180910390fd5b604051806101000160405280600b5481526020013373ffffffffffffffffffffffffffffffffffffffff16815260200142815260200162015180836110599190611848565b426110649190611b86565b8152602001600e60008481526020019081526020016000205481526020013481526020016110a6600e600085815260200190815260200160002054843461056d565b815260200160011515815250600c6000600b5481526020019081526020016000206000820151816000015560208201518160010160006101000a81548173ffffffffffffffffffffffffffffffffffffffff021916908373ffffffffffffffffffffffffffffffffffffffff16021790555060408201518160020155606082015181600301556080820151816004015560a0820151816005015560c0820151816006015560e08201518160070160006101000a81548160ff021916908315150217905550905050600d60003373ffffffffffffffffffffffffffffffffffffffff1673ffffffffffffffffffffffffffffffffffffffff168152602001908152602001600020600b5490806001815401808255809150506001900390600052602060002001600090919091909150556001600b60008282546111e89190611b86565b9250508190555060008054906101000a900473ffffffffffffffffffffffffffffffffffffffff1673ffffffffffffffffffffffffffffffffffffffff1663474cf53d34739198f13b08e299d85e096929fa9781a1e3d5d8273060006040518563ffffffff1660e01b815260040161126293929190611db3565b6000604051808303818588803b15801561127b57600080fd5b505af115801561128f573d6000803e3d6000fd5b505050505050565b60405180610100016040528060008152602001600073ffffffffffffffffffffffffffffffffffffffff16815260200160008152602001600081526020016000815260200160008152602001600081526020016000151581525090565b600080fd5b6000819050919050565b61130c816112f9565b811461131757600080fd5b50565b60008135905061132981611303565b92915050565b600060208284031215611345576113446112f4565b5b60006113538482850161131a565b91505092915050565b611365816112f9565b82525050565b6000602082019050611380600083018461135c565b92915050565b60008060006060848603121561139f5761139e6112f4565b5b60006113ad8682870161131a565b93505060206113be8682870161131a565b92505060406113cf8682870161131a565b9150509250925092565b600073ffffffffffffffffffffffffffffffffffffffff82169050919050565b6000819050919050565b600061141e611419611414846113d9565b6113f9565b6113d9565b9050919050565b600061143082611403565b9050919050565b600061144282611425565b9050919050565b61145281611437565b82525050565b600060208201905061146d6000830184611449565b92915050565b600061147e826113d9565b9050919050565b61148e81611473565b811461149957600080fd5b50565b6000813590506114ab81611485565b92915050565b6000602082840312156114c7576114c66112f4565b5b60006114d58482850161149c565b91505092915050565b600081519050919050565b600082825260208201905092915050565b6000819050602082019050919050565b611513816112f9565b82525050565b6000611525838361150a565b60208301905092915050565b6000602082019050919050565b6000611549826114de565b61155381856114e9565b935061155e836114fa565b8060005b8381101561158f5781516115768882611519565b975061158183611531565b925050600181019050611562565b5085935050505092915050565b600060208201905081810360008301526115b6818461153e565b905092915050565b600080604083850312156115d5576115d46112f4565b5b60006115e38582860161149c565b92505060206115f48582860161131a565b9150509250929050565b61160781611473565b82525050565b600060208201905061162260008301846115fe565b92915050565b6000806040838503121561163f5761163e6112f4565b5b600061164d8582860161131a565b925050602061165e8582860161131a565b9150509250929050565b60008115159050919050565b61167d81611668565b82525050565b600061010082019050611699600083018b61135c565b6116a6602083018a6115fe565b6116b3604083018961135c565b6116c0606083018861135c565b6116cd608083018761135c565b6116da60a083018661135c565b6116e760c083018561135c565b6116f460e0830184611674565b9998505050505050505050565b600061170c82611425565b9050919050565b61171c81611701565b82525050565b60006020820190506117376000830184611713565b92915050565b61174681611473565b82525050565b61175581611668565b82525050565b61010082016000820151611772600085018261150a565b506020820151611785602085018261173d565b506040820151611798604085018261150a565b5060608201516117ab606085018261150a565b5060808201516117be608085018261150a565b5060a08201516117d160a085018261150a565b5060c08201516117e460c085018261150a565b5060e08201516117f760e085018261174c565b50505050565b600061010082019050611813600083018461175b565b92915050565b7f4e487b7100000000000000000000000000000000000000000000000000000000600052601160045260246000fd5b6000611853826112f9565b915061185e836112f9565b925082820261186c816112f9565b9150828204841483151761188357611882611819565b5b5092915050565b7f4e487b7100000000000000000000000000000000000000000000000000000000600052601260045260246000fd5b60006118c4826112f9565b91506118cf836112f9565b9250826118df576118de61188a565b5b828204905092915050565b600082825260208201905092915050565b7f4f6e6c79206f776e65722063616e206d6f6469667920746865207374616b696e60008201527f6720706572696f64730000000000000000000000000000000000000000000000602082015250565b60006119576029836118ea565b9150611962826118fb565b604082019050919050565b600060208201905081810360008301526119868161194a565b9050919050565b60008151905061199c81611303565b92915050565b6000602082840312156119b8576119b76112f4565b5b60006119c68482850161198d565b91505092915050565b7f4f6e6c79207468652063726561746f722063616e206d6f64696679207468652060008201527f706f736974696f6e000000000000000000000000000000000000000000000000602082015250565b6000611a2b6028836118ea565b9150611a36826119cf565b604082019050919050565b60006020820190508181036000830152611a5a81611a1e565b9050919050565b7f506f736974696f6e20697320636c6f7365640000000000000000000000000000600082015250565b6000611a976012836118ea565b9150611aa282611a61565b602082019050919050565b60006020820190508181036000830152611ac681611a8a565b9050919050565b6000604082019050611ae260008301856115fe565b611aef602083018461135c565b9392505050565b611aff81611668565b8114611b0a57600080fd5b50565b600081519050611b1c81611af6565b92915050565b600060208284031215611b3857611b376112f4565b5b6000611b4684828501611b0d565b91505092915050565b6000606082019050611b6460008301866115fe565b611b71602083018561135c565b611b7e60408301846115fe565b949350505050565b6000611b91826112f9565b9150611b9c836112f9565b9250828201905080821115611bb457611bb3611819565b5b92915050565b600081905092915050565b50565b6000611bd5600083611bba565b9150611be082611bc5565b600082019050919050565b6000611bf682611bc8565b9150819050919050565b7f5472616e73616374696f6e206661696c65640000000000000000000000000000600082015250565b6000611c366012836118ea565b9150611c4182611c00565b602082019050919050565b60006020820190508181036000830152611c6581611c29565b9050919050565b7f4f6e6c79206f776e65722063616e206368616e676520556e6c6f636b2064617460008201527f6500000000000000000000000000000000000000000000000000000000000000602082015250565b6000611cc86021836118ea565b9150611cd382611c6c565b604082019050919050565b60006020820190508181036000830152611cf781611cbb565b9050919050565b7f4d617070696e67206e6f7420666f756e64000000000000000000000000000000600082015250565b6000611d346011836118ea565b9150611d3f82611cfe565b602082019050919050565b60006020820190508181036000830152611d6381611d27565b9050919050565b6000819050919050565b600061ffff82169050919050565b6000611d9d611d98611d9384611d6a565b6113f9565b611d74565b9050919050565b611dad81611d82565b82525050565b6000606082019050611dc860008301866115fe565b611dd560208301856115fe565b611de26040830184611da4565b94935050505056fea2646970667358221220a354c5fe07d48b0cc7cba2c1aed05b4b42320e37e228e05096e9b0fb844a915664736f6c63430008110033",
  "linkReferences": {},
  "deployedLinkReferences": {}
}